:1000000009C016C07AC0C0C013C012C011C010C051
:100010000FC00EC011241FBECFE9CDBF10E0A0E677
:10002000B0E001C01D92AC36B107E1F73DD1A1C1EE
:10003000E7CF88B38C6088BB089588B3837F88BB83
:100040000895FBDF85E083BF82E0809360008091AC
:100050006200909163009093650080936400969590
:100060008795909363008093620024E08834920720
:1000700058F488E494E09093630080936200809148
:1000800061008F5F809361000895D7DF81E083BFB7
:1000900083E08093600080E48093670088E0809331
:1000A000660088EB9BE09093650080936400089560
:1000B00021E030E0B49B02C020E030E0C9010895A7
:1000C000CF93DF9380916000882391F0CAE0D0E065
:1000D000B0DF87E99AE30197F1F700C00000ADDFD8
:1000E00087E99AE30197F1F700C00000219781F7B3
:1000F00010926000DF91CF9108951F920F920FB67A
:100100000F9211242F933F934F935F936F937F939D
:100110008F939F93AF93BF93CF93DF93EF93FF930F
:10012000C7DF0097F1F080916000882321F4C0DFE1
:100130000097E9F716C0C4E1D0E0BADF009749F0B4
:100140008FE295E70197F1F700C000002197A9F72A
:1001500004C081E080936B0004C0AADF0097E9F738
:10016000AFDFFF91EF91DF91CF91BF91AF919F9161
:100170008F917F916F915F914F913F912F910F9050
:100180000FBE0F901F9018951F920F920FB60F92EF
:1001900011242F933F934F935F936F937F938F938C
:1001A0009F93AF93BF93EF93FF93809164009091DF
:1001B0006500009721F580916000823009F462C0EB
:1001C000833021F0813009F05EC017C08091660055
:1001D000883011F484E001C088E08093660088EBE9
:1001E0009BE090936500809364008091670081504C
:1001F00080936700882309F046C023DF44C001973D
:10020000909365008093640020916000223071F12A
:100210002330C9F525E08C3D920700F140916A003A
:100220004C5F40936A008091680090916900242F90
:1002300030E0509166008217930728F438B3252FD9
:100240002095232302C028B3252B28BB4423D9F4AF
:100250000696909369008093680015C0109269001B
:100260001092680010926A00E8DE0DC080916B0069
:1002700010926B00882339F080E291E19093650041
:100280008093640002DFFF91EF91BF91AF919F9146
:100290008F917F916F915F914F913F912F910F902F
:1002A0000FBE0F901F901895A0E0B0E0E9E5F1E0D7
:1002B0004FC0BC98C49A87B38C6087BB789480E2A7
:1002C0008BBF80E185BB8FEF8093600042E0E42E1E
:1002D00035E0F32E0EEE10EEDD24D394C9E0D0E02D
:1002E000ACDEE5BCEDDE85B7877E806185BF85B776
:1002F000806285BF889585B78F7D85BF15BCE9BEB7
:10030000F3BE10936300009362001092610091DECF
:10031000F3BED0926000D0936500C093640085B7AF
:10032000877E85BF809160008823D1F285B7806287
:1003300085BF889585B78F7DF4CF2F923F924F92DE
:100340005F926F927F928F929F92AF92BF92CF9265
:10035000DF92EF92FF920F931F93CF93DF93CDB76E
:10036000DEB7CA1BDB0B0FB6F894DEBF0FBECDBFE6
:060370000994F894FFCF90
:00000001FF
