:1000000009C016C08AC0C6C013C012C011C010C03B
:100010000FC00EC011241FBECFE9CDBF10E0A0E677
:10002000B0E001C01D92AC36B107E1F742D1A8C1E2
:10003000E7CF88B3886188BB089588B3877E88BB83
:100040000895FBDF85E083BF82E0809361008091AB
:10005000630090916400909366008093650096958C
:100060008795909364008093630028E08539920718
:1000700058F485E998E09093640080936300809140
:1000800062008F5F80936200109260000895D5DF58
:1000900081E083BF83E08093610080E48093680007
:1000A00088E08093670086ED96E0909366008093E9
:1000B00065000895CF9380916100882389F0C4E0A2
:1000C00087E99AE30197F1F700C00000B2DF8BEDFA
:1000D00095E00197F1F700C00000AFDFC15081F754
:1000E00010926100CF9108958BE49DE10197F1F7A3
:1000F0000FC09FDFABEDB5E01197F1F700C0000036
:100100009CDF8FE59AEEA0E081509040A040E1F79F
:1001100000C00000B29BEDCF08951F920F920FB662
:100120000F9211242F933F934F935F936F937F937D
:100130008F939F93AF93BF93EF93FF93B29919C09F
:1001400080916100882311F4CFDF13C084E190E037
:10015000B29909C0EFE2F5E73197F1F700C000006E
:100160000197B1F704C081E08093600002C0BCDF5A
:10017000A1DFFF91EF91BF91AF919F918F917F91FF
:100180006F915F914F913F912F910F900FBE0F9004
:100190001F9018951F920F920FB60F9211242F9354
:1001A0003F934F935F936F937F938F939F93AF93FF
:1001B000BF93EF93FF938091650090916600009745
:1001C00021F580916100823009F461C0833021F013
:1001D000813009F05DC017C080916700883011F44C
:1001E00080E101C088E08093670086ED96E09093FF
:1001F000660080936500809168008150809368005C
:10020000882309F045C01DDF43C001979093660025
:100210008093650020916100223069F12330C1F59F
:100220008A3F910500F140916B004C5F40936B0059
:100230008091690090916A00242F30E0509167000E
:100240008217930728F438B3252F2095232302C063
:1002500028B3252B28BB4423D9F4069690936A0033
:100260008093690015C010926A0010926900109284
:100270006B00E3DE0DC08091600010926000882367
:1002800039F084E592E29093660080936500FFDE8A
:10029000FF91EF91BF91AF919F918F917F916F915E
:1002A0005F914F913F912F910F900FBE0F901F9034
:1002B0001895A0E0B0E0EEE5F1E051C0BA98C29A1E
:1002C00087B3886187BB10926000789480E28BBF0F
:1002D00084E085BB8FEF8093610042E0E42E35E03F
:1002E000F32E0EE411EEDD24D394C9E0D0E0A5DEB8
:1002F000E5BCE0DE85B7877E806185BF85B780621B
:1003000085BF889585B78F7D85BF15BCE9BEF3BED7
:100310001093640000936300109262008ADEF3BEC3
:10032000D0926100D0936600C093650085B7877E48
:1003300085BF809161008823D1F285B7806285BF37
:10034000889585B78F7DF4CF2F923F924F925F9221
:100350006F927F928F929F92AF92BF92CF92DF92D5
:10036000EF92FF920F931F93CF93DF93CDB7DEB73A
:10037000CA1BDB0B0FB6F894DEBF0FBECDBF0994CE
:04038000F894FFCF1F
:00000001FF
