:1000000009C016C07BC0D0C013C012C011C010C040
:100010000FC00EC011241FBECFE9CDBF10E0A0E677
:10002000B0E001C01D92AC36B107E1F745D1CDC1BA
:10003000E7CF88B3886188BB089588B3877E88BB83
:100040000895FBDF85E083BF82E0809361008091AB
:10005000630090916400909366008093650096958C
:100060008795909364008093630028E0833992071A
:1000700058F483E998E09093640080936300809142
:1000800062008F5F809362000895D7DF81E083BFB5
:1000900083E08093610080E48093670088E0809330
:1000A000680086ED96E09093660080936500089561
:1000B000A1E0B0E0EDE5F0E060C110E011C0E7E9DB
:1000C000FAE33197F1F700C000008983B2DFEBED6E
:1000D000F5E03197F1F700C00000AFDF1F5F8981C5
:1000E000181768F32196E3E064C1809161008823CA
:1000F00011F084E0DDDF1092610008951F920F92ED
:100100000FB60F9211242F933F934F935F936F93EA
:100110007F938F939F93AF93BF93EF93FF93B29986
:1001200032C084E190E0B29921C0AFE2B5E7119707
:10013000F1F700C000000197B1F7EBE4FDE1319762
:10014000F1F70FC076DF8BED95E00197F1F700C076
:10015000000073DF8FE59AEEA0E081509040A04050
:10016000E1F700C00000B29BEDCF0CC080916100B0
:10017000823049F48CE492E29093660080936500AB
:1001800084DF01C0B2DFFF91EF91BF91AF919F91EA
:100190008F917F916F915F914F913F912F910F9030
:1001A0000FBE0F901F9018951F920F920FB60F92CF
:1001B00011242F933F934F935F936F937F938F936C
:1001C0009F93AF93BF93EF93FF932091650030917E
:1001D0006600C90101979093660080936500211520
:1001E000310559F580916100823029F0833029F082
:1001F0008130D1F418C049DF17C080916800883081
:1002000011F480E101C088E08093680086ED96E0FB
:100210009093660080936500809167008150809381
:100220006700882309F40DDF8091650090916600D6
:10023000009789F58FEF3CDFFDCF209161002330DF
:1002400051F58A3F910500F140916B004C5F40935E
:100250006B008091690090916A00242F30E05091EA
:1002600068008217930728F438B3252F209523239D
:1002700002C028B3252B28BB442369F4069690932B
:100280006A008093690007C010926A0010926900AA
:1002900010926B00D2DEFF91EF91BF91AF919F91D1
:1002A0008F917F916F915F914F913F912F910F901F
:1002B0000FBE0F901F901895A0E0B0E0E1E6F1E0CE
:1002C00057C0BA98C29A87B3886187BB1092600002
:1002D000789480E28BBF84E085BB8FEF80936100D0
:1002E00053E0C52EEE24E39442E0D42E35E0F32E05
:1002F00003E211EEC9E0D0E0A0DEC5BCF6DE85B7B2
:10030000877E806185BF85B7806285BF889585B708
:100310008F7D85BFE5BCD9BEF3BE1093640000930A
:1003200063001092620085DEF3BEE0926100D0931C
:100330006600C093650085B7877E06C085B780627A
:1003400085BF889585B78F7D85BF809161008823A3
:1003500099F280916200883088F3CECF2F923F923D
:100360004F925F926F927F928F929F92AF92BF92C5
:10037000CF92DF92EF92FF920F931F93CF93DF9371
:10038000CDB7DEB7CA1BDB0B0FB6F894DEBF0FBECE
:10039000CDBF09942A88398848885F846E847D841B
:1003A0008C849B84AA84B984C884DF80EE80FD801D
:1003B0000C811B81AA81B981CE0FD11D0FB6F89493
:0E03C000DEBF0FBECDBFED010895F894FFCF54
:00000001FF
