:1000000009C016C015C056C013C012C011C010C020
:100010000FC00EC011241FBECFE9CDBF10E0A0E677
:10002000B0E001C01D92AA36B107E1F7D6D0FAC000
:10003000E7CF88B3837F88BB0895FBDF85E083BF6C
:1000400081E08093620080916000909161009093C4
:1000500064008093630096958795909361008093E8
:10006000600024E08834920730F488E494E09093B0
:100070006100809360000895DCDF81E083BF82E04F
:100080008093620080E48093660088E0809365003E
:1000900088EB9BE09093640080936300089581E077
:1000A00083BF089521E030E0B49B02C020E030E03F
:1000B000C90108951F920F920FB60F9211242F932A
:1000C0003F934F935F936F937F938F939F93AF93E0
:1000D000BF93EF93FF938091630090916400209110
:1000E0006200009759F5213009F460C0213020F0FA
:1000F000223009F05CC00AC0D5DF0097E9F088E43F
:1001000094E0909361008093600050C080916500FE
:10011000883011F484E001C088E08093650088EBAA
:100120009BE090936400809363008091660081500F
:10013000809366008823D9F580DF39C001979093BA
:10014000640080936300213071F1223081F525E055
:100150008C3D920700F1409169004C5F409369002B
:100160008091670090916800242F30E050916500E5
:100170008217930728F438B3252F2095232302C034
:1001800028B3252B28BB442391F40696909368004E
:10019000809367000CC01092680010926700109264
:1001A000690047DF04C07EDF009709F065DFFF913B
:1001B000EF91BF91AF919F918F917F916F915F91DF
:1001C0004F913F912F910F900FBE0F901F90189558
:1001D00085E083BF82E089BF0895BC98C49A87B345
:1001E0008C6087BBF5DF8EEE90EE9093610080937C
:1001F000600088B38C6088BB85E083BF109262008A
:1002000089E090E09093640080936300789485B7D0
:10021000877E85BF85B7806285BF889585B78F7DCE
:0802200085BFFFCFF894FFCF6A
:00000001FF
