:1000000009C016C075C0BBC013C012C011C010C05B
:100010000FC00EC011241FBECFE9CDBF10E0A0E677
:10002000B0E001C01D92AB36B107E1F731D194C108
:10003000E7CF88B38C6088BB089588B3837F88BB83
:100040000895FBDF85E083BF82E0809360008091AC
:100050006100909162009093640080936300969594
:100060008795909362008093610024E08834920722
:1000700030F488E494E090936200809361000895E6
:10008000DCDF81E083BF83E08093600080E48093C5
:10009000660088E08093650088EB9BE090936400A5
:1000A00080936300089521E030E0B49B02C020E01B
:1000B00030E0C9010895CF93DF93809160008823D9
:1000C00091F0CAE0D0E0B5DF87E99AE30197F1F754
:1000D00000C00000B2DF87E99AE30197F1F700C0A2
:1000E0000000219781F710926000DF91CF91089571
:1000F0001F920F920FB60F9211242F933F934F939D
:100100005F936F937F938F939F93AF93BF93CF939F
:10011000DF93EF93FF93C7DF0097F1F080916000CA
:10012000882321F4C0DF0097E9F716C0C4E1D0E0CE
:10013000BADF009749F08FE295E70197F1F700C029
:1001400000002197A9F704C081E080936A0004C0F1
:10015000AADF0097E9F7AFDFFF91EF91DF91CF9131
:10016000BF91AF919F918F917F916F915F914F91CF
:100170003F912F910F900FBE0F901F9018951F92D7
:100180000F920FB60F9211242F933F934F935F93CB
:100190006F937F938F939F93AF93BF93EF93FF934F
:1001A0008091630090916400009721F58091600038
:1001B000823009F45BC0833021F0813009F057C0F0
:1001C00017C080916500883011F484E001C088E098
:1001D0008093650088EB9BE09093640080936300BC
:1001E00080916600815080936600882309F03FC0AB
:1001F00028DF3DC0019790936400809363002091B5
:100200006000223071F1233091F525E08C3D92079A
:1002100000F1409169004C5F409369008091670054
:1002200090916800242F30E0509165008217930769
:1002300028F438B3252F2095232302C028B3252B7B
:1002400028BB4423A1F4069690936800809367002E
:100250000EC0109268001092670010926900EDDEE7
:1002600006C080916A0010926A00811109DFFF9137
:10027000EF91BF91AF919F918F917F916F915F911E
:100280004F913F912F910F900FBE0F901F90189597
:10029000A0E0B0E0EDE4F1E04EC0BC98C49A87B3B2
:1002A0008C6087BB789480E28BBF80E185BB8FEF49
:1002B0008093600042E0E42E35E0F32E0EEE10EE67
:1002C000DD24D394C9E0D0E0B8DEE5BCF4DE85B728
:1002D000877E806185BF85B7806285BF889585B739
:1002E0008F7D85BF15BCE9BEF3BE109362000093FD
:1002F00061009FDEF3BED0926000D0936400C09393
:10030000630085B7877E06C085B7806285BF889504
:1003100085B78F7D85BF809160008823A9F7D4CFF2
:100320002F923F924F925F926F927F928F929F9205
:10033000AF92BF92CF92DF92EF92FF920F931F93F3
:10034000CF93DF93CDB7DEB7CA1BDB0B0FB6F894A4
:0C035000DEBF0FBECDBF0994F894FFCFB4
:00000001FF
