:1000000009C021C020C05EC01EC01DC01CC01BC0D6
:100010001AC019C011241FBECFE9CDBF10E0A0E661
:10002000B0E0E2E4F2E002C005900D92A436B10720
:10003000D9F710E0A4E6B0E001C01D92AC36B107DC
:10004000E1F7D3D0FCC0DCCF21E02093670088E744
:1000500090E090936B0080936A0023BF88EB9BE055
:10006000909369008093680008951092670025E0DE
:1000700023BF009739F085E394EF90936900809354
:1000800068000895809160009091610090936900EC
:1000900080936800969587959093610080936000A7
:1000A00024E08834920730F488E494E0909361006F
:1000B00080936000089588B3837F88BB089581E0B2
:1000C00083BF08951F920F920FB60F9211242F93A2
:1000D0003F934F935F936F937F938F939F93AF93D0
:1000E000BF93EF93FF93809168009091690001970F
:1000F000909369008093680080916700882309F4D9
:1001000056C0813009F05AC0809168009091690012
:1001100025E08C3D920700F1409166004C5F4093D2
:1001200066008091640090916500242F30E050912A
:1001300062008217930728F438B3252F20952323D4
:1001400002C028B3252B28BB4423C1F50696909303
:1001500065008093640032C01092650010926400C4
:1001600010926600A8DF8091680090916900009766
:1001700029F580916200883011F484E001C088E0A4
:100180008093620088EB9BE0909369008093680005
:1001900080916A0090916B00019790936B0080931F
:1001A0006A00009759F480E090E05FDF07C080911B
:1001B000680090916900009709F446DFFF91EF9184
:1001C000BF91AF919F918F917F916F915F914F916F
:1001D0003F912F910F900FBE0F901F90189585E0C3
:1001E00083BF82E089BF78940895BC98C49A87B38E
:1001F0008C6087BB86B3F3DF89E090E09093690061
:100200008093680003C088B38C6088BB80916800CD
:10021000909169000097B9F74EDFB49902C014DFDE
:1002200003C081E090E021DF85B7877E85BF85B779
:10023000806285BF889585B78F7D85BFFFCFF89495
:02024000FFCFEE
:00000001FF
