:1000000009C021C020C052C01EC01DC01CC01BC0E2
:100010001AC019C011241FBECFE9CDBF10E0A0E661
:10002000B0E0E8E2F2E002C005900D92A436B1071C
:10003000D9F710E0A4E6B0E001C01D92AB36B107DD
:10004000E1F7C2D0EFC0DCCF81E08093670098E594
:1000500090936A0083BF88EB9BE090936900809344
:10006000680008951092670085E083BF809160006A
:1000700090916100909369008093680096958795B0
:10008000909361008093600024E08834920730F4FC
:1000900088E494E09093610080936000089588B3B1
:1000A000837F88BB089581E083BF08951F920F92DC
:1000B0000FB60F9211242F933F934F935F936F933B
:1000C0007F938F939F93AF93BF93EF93FF93809111
:1000D000680090916900019790936900809368008F
:1000E00080916700882309F450C0813009F055C021
:1000F000809168009091690025E08C3D920700F1A5
:10010000409166004C5F409366008091640090913E
:100110006500242F30E0509162008217930728F485
:1001200038B3252F2095232302C028B3252B28BBC5
:10013000442399F5069690936500809364002DC042
:10014000109265001092640010926600A8DF809102
:10015000680090916900009701F5809162008830F5
:1001600011F484E001C088E08093620088EB9BE09A
:10017000909369008093680080916A008150809319
:100180006A00882351F46EDF08C080916800909166
:100190006900009709F0B49B57DFFF91EF91BF9181
:1001A000AF919F918F917F916F915F914F913F910F
:1001B0002F910F900FBE0F901F90189585E083BF71
:1001C00082E089BF78940895BC98C49A87B38C6004
:1001D00087BB86B3F3DF89E090E09093690080935A
:1001E000680003C088B38C6088BB809168009091E0
:1001F00069000097B9F753DFB49908C088E494E028
:1002000090936100809360001FDF01C02BDF85B7F2
:10021000877E85BF85B7806285BF889585B78F7DCE
:0802200085BFFFCFF894FFCF6A
:00000001FF
