:1000000009C016C07BC0D3C013C012C011C010C03D
:100010000FC00EC011241FBECFE9CDBF10E0A0E677
:10002000B0E001C01D92AD36B107E1F749D1D7C1AB
:10003000E7CF88B3886188BB089588B3877E88BB83
:100040000895FBDF85E083BF82E0809361008091AB
:10005000640090916500909367008093660028E0AB
:100060008439920738F09695879590936500809330
:100070006400089583E998E090936500809364009C
:10008000809162008F5F809362000895D6DF81E0E7
:1000900083BF83E08093610080E48093680088E000
:1000A000809369008FEE98E09093670080936600DC
:1000B0000895A1E0B0E0EEE5F0E06AC111C0E7E923
:1000C000FAE33197F1F700C000008983B2DFEBED6E
:1000D000F5E03197F1F700C00000AFDF8981815072
:1000E000882369F72196E2E06FC18091610088233F
:1000F00011F084E0DEDF1092610008951F920F92EC
:100100000FB60F9211242F933F934F935F936F93EA
:100110007F938F939F93AF93BF93EF93FF93B29986
:1001200035C084E190E0B29921C0AFE2B5E7119704
:10013000F1F700C000000197B1F7EBE4FDE1319762
:10014000F1F70FC076DF8BED95E00197F1F700C076
:10015000000073DF8FE59AEEA0E081509040A04050
:10016000E1F700C00000B29BEDCF0FC080916100AD
:10017000823061F486E291E190936700809366009B
:1001800088E08093630082DF01C0AFDFFF91EF91D1
:10019000BF91AF919F918F917F916F915F914F919F
:1001A0003F912F910F900FBE0F901F9018951F92A7
:1001B0000F920FB60F9211242F933F934F935F939B
:1001C0006F937F938F939F93AF93BF93EF93FF931F
:1001D0002091660030916700C901019790936700F4
:1001E000809366002115310559F5809161008230B8
:1001F00029F0833029F08130D1F418C047DF17C0CF
:1002000080916900883011F480E101C088E080931A
:1002100069008FEE98E0909367008093660080916C
:100220006800815080936800882309F40ADF809178
:10023000660090916700009791F58FEF3ADFFDCF50
:1002400020916100233059F5843E910508F14091D9
:100250006C004C5F40936C0080916A0090916B0041
:10026000242F30E0509169008217930720F038B3B3
:10027000352B38BB05C038B3252F2095232328BB49
:10028000442369F4029690936B0080936A0007C040
:1002900010926B0010926A0010926C00CEDEFF91FB
:1002A000EF91BF91AF919F918F917F916F915F91EE
:1002B0004F913F912F910F900FBE0F901F90189567
:1002C000A0E0B0E0E5E6F1E05CC0BA98C29A87B37E
:1002D000886187BB10926000789480E28BBF84E0D5
:1002E00085BB8FEF8093610063E0B62EEE24E3942C
:1002F00052E0C52E45E0F42E03E211EE30E1D32E9C
:10030000C9E0D0E0B5BC99DEF0DE85B7877E8061BC
:1003100085BF85B7806285BF889585B78F7D85BF8E
:10032000E5BCC9BEF3BE1093650000936400109253
:100330006200D09263007DDEF3BEE0926100D09354
:100340006700C093660085B7877E06C085B7806268
:1003500085BF889585B78F7D85BF80916100882393
:1003600089F29091620080916300981778F3CACF68
:100370002F923F924F925F926F927F928F929F92B5
:10038000AF92BF92CF92DF92EF92FF920F931F93A3
:10039000CF93DF93CDB7DEB7CA1BDB0B0FB6F89454
:1003A000DEBF0FBECDBF09942A88398848885F8494
:1003B0006E847D848C849B84AA84B984C884DF8005
:1003C000EE80FD800C811B81AA81B981CE0FD11DE9
:1003D0000FB6F894DEBF0FBECDBFED010895F894BF
:0203E000FFCF4D
:00000001FF
