:1000000009C021C07EC0D6C01EC01DC01CC01BC000
:100010001AC019C011241FBECFE9CDBF10E0A0E661
:10002000B0E0E8EBF3E002C005900D92A236B10714
:10003000D9F710E0A2E6B0E001C01D92AE36B107DC
:10004000E1F746D1B7C1DCCF88B3886188BB08959A
:1000500088B3877E88BB0895FBDF85E083BF82E09D
:100060008093600080916400909165009093670098
:100070008093660028E08439920738F0969587953A
:100080009093650080936400089583E998E09093CD
:10009000650080936400809162008F5F80936200AE
:1000A0000895D6DF81E083BF83E08093600080E421
:1000B000809368001092690088E080936A008FEE58
:1000C00098E090936700809366000895CF938091A5
:1000D0006000882391F0C4E00EC087E99AE301979D
:1000E000F1F700C00000B0DF8BED95E00197F1F76C
:1000F00000C00000ADDFC15080F710926000CF91CA
:1001000008951F920F920FB60F9211242F933F93D1
:100110004F935F936F937F938F939F93AF93BF930F
:10012000EF93FF93B29935C084E190E0B29921C07A
:10013000AFE2B5E71197F1F700C000000197B1F702
:10014000EBE4FDE13197F1F70FC07EDF8BED95E039
:100150000197F1F700C000007BDF8FE59AEEA0E089
:1001600081509040A040E1F700C00000B29BEDCF6D
:100170000FC080916000823061F486E291E190933B
:1001800067008093660088E0809363008ADF01C087
:100190009DDFFF91EF91BF91AF919F918F917F91E3
:1001A0006F915F914F913F912F910F900FBE0F90E4
:1001B0001F9018951F920F920FB60F9211242F9334
:1001C0003F934F935F936F937F938F939F93AF93DF
:1001D000BF93EF93FF932091660030916700C901B0
:1001E000019790936700809366002115310551F5C2
:1001F00080916000823031F0833031F0813009F03D
:1002000056C009C04EDF53C0809168008150809372
:100210006800882311F420DF4AC080916A0088308A
:1002200011F480E101C088E080936A008FEE98E0CD
:100230009093670080936600809169008C5F809343
:10024000690035C020916000233089F5843E910516
:1002500038F140916D004C5F40936D0080916B00D0
:1002600090916C00242F30E050916A008217930720
:1002700020F038B3352B38BB05C038B3252F209577
:10028000232328BB442399F42091690030E02817E8
:10029000390768F0029690936C0080936B0007C05A
:1002A00010926C0010926B0010926D00D1DEFF91E5
:1002B000EF91BF91AF919F918F917F916F915F91DE
:1002C0004F913F912F910F900FBE0F901F90189557
:1002D000A0E0B0E0EDE6F1E05AC0BA98C29A87B368
:1002E000886187BB789480E28BBF84E085BB8FEF09
:1002F0008093600063E0B62EEE24E39452E0C52EB6
:1003000045E0F42E03E211EE30E1D32EC9E0D0E057
:10031000B5BC9EDEDBDE85B7877E806185BF85B795
:10032000806285BF889585B78F7D85BFE5BCC9BED6
:10033000F3BE109365000093640010926200D092A7
:10034000630082DEF3BEE0926000D0936700C0934A
:10035000660085B7877E06C085B7806285BF8895B1
:1003600085B78F7D85BF80916000882389F2909149
:10037000620080916300981778F3CACF2F923F9262
:100380004F925F926F927F928F929F92AF92BF92A5
:10039000CF92DF92EF92FF920F931F93CF93DF9351
:1003A000CDB7DEB7CA1BDB0B0FB6F894DEBF0FBEAE
:0803B000CDBF0994F894FFCFC2
:0203B800FF0044
:00000001FF
